:10000000F8FF002011040000292F0000292F000014
:10001000292F0000292F0000292F0000292F000080
:10002000292F0000292F0000292F0000292F000070
:10003000292F0000292F0000292F0000292F000060
:10004000292F0000292F0000292F0000292F000050
:10040000FFFFFFFFFFFFFFFFFFFFFFFFFEFFFFFFFD
:1004100062B604F059FEFEE72DE9F04FA1B0824626
:10042000002016461D4602910B900DF144086FF016
:1004300000490AE016F8011B0298D04700280290F4
:1004400000F0AF820B98401C0B903078010001D176
:100450000B98A8E22528EDD1002005900690079082
:10046000089009900A9001E040F0010016F8011F81
:100470002029F9D023290DD02B2904D02D2906D0ED
:1004800030290AD00CE040F0020080B2EEE740F0E4
:100490000400FAE740F00800F7E740F01000F4E746
:1004A0002A290ED12968296051F8042B2960002AD5
:1004B0000D9204D5514240F004000D9180B2761C9B
:1004C00011E000210D9109E00D99494505D001EB9E
:1004D000810302EB430130390D91761C3278A2F191
:1004E00030010A29F0D331782E2903D04FF0FF31A3
:1004F0000C911DE016F8011F2A2907D129682960EF
:10050000761C51F8042B29600C9211E000210C910B
:1005100009E00C99494505D001EB810302EB430149
:1005200030390C91761C3278A2F130010A29F0D3CF
:10053000ADF838000FF6D820317800F077FD08B11B
:1005400016F8010B8DF83A009DF83A00682802BFB2
:1005500031786829622005D06C2804BF30786C2877
:1005600003D171208DF83A00761C11A8049016F87A
:10057000017BB7F1250024D02038022840F2C38047
:10058000133800F0E8800B3800F05681401E00F070
:100590002C81401E022840F2B680001F00F0258109
:1005A000401F00F08180401E00F0D580401E24D006
:1005B000C01E0BD0801E00F0CE80C01E00F0CB808D
:1005C00044E125208DF84400012049E12868286095
:1005D00050F8044B286003940C9F002F04D520464C
:1005E00000F030FD074606E03A460021204600F0C4
:1005F00045FD00B1071B069733E1296829600022F9
:1006000051F8040B29600021CDE9000111A80390E5
:10061000DDE900019142049F08BF90424FF03C0C7D
:1006200001D10C9AC2B100F00F033033DBB23A2B88
:10063000A8BF2733ACF101020009BB54944640EA3D
:10064000017009090022914208BF904204D0039A28
:1006500007EB0C039A42E6D307EB0C000390CCF1B6
:100660003C010C980691814209DA401A08904FF635
:10067000EF71BDF838000840ADF83800F1E000280F
:1006800040F1EF809DF8380000F01400102840F091
:10069000E8800D98059A801A089A801A401A012855
:1006A000C0F2DF800890DCE09DF83A0062281AD0A2
:1006B000682806D06A280CD06C281CD0712808D075
:1006C00019E02868286050F8041B28600B980880FF
:1006D000C7E02868286050F8042B28600B98C117E1
:1006E000C2E90001BDE02868286050F8041B2860BA
:1006F0000B980870B5E02868286050F8041B286043
:100700000B980860ADE02868C01D20F007022A6041
:10071000D2E9000108322A60CDE90001002902D5A2
:1007200005982D210AE0BDF83800810702D505980B
:100730002B2103E0C00705D50598202108F80010FB
:10074000401C059011A80599084403903946684655
:1007500000F0E8F985E09DF83A006C280DD071288A
:1007600018BF6A2809D12868C01D20F007022A6036
:10077000D2E9000108322A6005E02968296051F8B1
:10078000040B29600021CDE900019DF83A0068289A
:1007900003D1DDE9000180B20BE0622803D1DDE97D
:1007A0000001C0B205E0742818BF7A2804D1DDE941
:1007B00000010021CDE900019DF83800000732D585
:1007C000DDE900230020834208BF82422BD047F09E
:1007D0002000782827D10598302108F80010401C07
:1007E000411C059108F800701DE09DF83A0029466B
:1007F00000F0DCF8CDE90001DDE9002300218B42A7
:1008000002DA05982D210AE0BDF83800810702D5EB
:1008100005982B2103E0C00705D50598202108F88D
:100820000010401C059011A8059908440390394612
:10083000684600F0F2F814E001200590286828606E
:1008400050F8041B28608DF844100AE025208DF82C
:10085000440001200590380003D088F80170022080
:1008600005900D980599401A0899401A0699401A62
:100870000999401A0799401A0A99471A9DF83800B1
:10088000400710D42020012F8DF840000BDB3C46A0
:10089000012310AA6946504600F0A2FB002840F050
:1008A0008080641EF4D1DDF814B0BBF1000F11ACF0
:1008B0000CD014F8011B0298D0470028029070D089
:1008C0000B98401CBBF1010B0B90F2D130208DF83E
:1008D0004000089C012C09DB012310AA6946504600
:1008E00000F07EFB00285CD1641EF5D1DDF818B065
:1008F000039CBBF1000F0CD014F8011B0298D047E9
:10090000002802904DD00B98401CBBF1010B0B90BE
:10091000F2D130208DF84000099C012C09DB012325
:1009200010AA6946504600F05BFB002839D1641ECE
:10093000F5D103980699DDF81CB04418BBF1000FFF
:100940000BD014F8011B0298D047029048B30B98C3
:10095000401CBBF1010B0B90F3D130208DF840000F
:100960000A9C012C08DB012310AA6946504600F0BE
:1009700037FBB0B9641EF6D19DF8380040077FF50B
:1009800064AD2020012F8DF84000FFF65EAD0123FD
:1009900010AA6946504600F023FB10B97F1EF6D11D
:1009A00053E54FF0FF3021B0BDE8F08F622826D02C
:1009B00068281DD06A2808D06C2827D0712804D058
:1009C000742823D07A280CD020E00868C01D20F0BD
:1009D00007000860D0E90023083008601946104677
:1009E00070470A680A6052F8040B0A6000217047D9
:1009F0000A680A6052F8040B0A6000B20BE00A6849
:100A00000A6052F8040B0A6040B204E00A680A6007
:100A100052F8040B0A60C11770472DE9F3430546ED
:100A200008462F696F2808BF082405D041F020012F
:100A3000782914BF0A2410243C26D5E90023642811
:100A400018BF69289046994606D100218B4203DAE7
:100A5000D8F1000869EB49090020814508BF8045AD
:100A60000CD1286B50B9082C38D195F83800000704
:100A700034D530203B2687F83B002FE0701E0090D5
:100A80000646404649462246E31700F023FB02F1A2
:100A90003000C0B23A2803DB9DF804105139081821
:100AA000B855494640462246E31700F013FB8046FE
:100AB00089460020814508BF804503D0E868B91900
:100AC0008842DBD3082C09D195F83800000705D5FA
:100AD000B85D302802D0761E3020B855B919E960CB
:100AE000C6F13C00296BA861884208DA081A28621E
:100AF0004FF6EF71288F08402887BDE8F38300295F
:100B00000ED595F8381001F01401102908D1696B41
:100B10006A69891A2A6A891A0E1A012EA8BF2E62DA
:100B2000BDE8F3832DE9F34F8BB0D0E90089006B6A
:100B3000002801AF48BF062005D404BF41F02000C3
:100B4000672802D101200B99086340F2FF720B98CD
:100B50004168C1F30A50904220D1080302BF0B98AC
:100B6000006800280AD10B99032088619DF83000A5
:100B700061381A2858D30FF2AC4109E00B990320D1
:100B800088619DF8300061381A284AD30FF28C41F1
:100B90000B98C068032200F015FBFFE0012807DA7C
:100BA0000B9800F04AFB012802DB00230026ECE052
:100BB0000B9ADFF854B1526840F2FE3161F31E52D5
:100BC0000B994A6040F2FE31401A00B247F2975149
:100BD00048434E4990FBF1F6404649460022002327
:100BE00000F04EFB36B238BF89F00049C6F1070766
:100BF000012F92461BDBF80707D552465B4640465D
:100C0000494600F055FB80468946504659465246B3
:100C10005B467F1000F04CFB002F82468B46EAD1EA
:100C200026E00FF2F431B3E70FF2F431B0E77F4280
:100C30000024374D12E0F80707D552465B462046A0
:100C4000294600F035FB04460D46504659465246AB
:100C50005B4600F02DFB7F1082468B46002FEAD1C9
:100C60004046494622462B4600F0F4FB8046894622
:100C70009DF830000B99DFF89CB0096B40F020051F
:100C8000662D0CBF06F10A0006204718142FA8BFD6
:100C9000132730208DF804000DF10504012F3BDBF4
:100CA0004046494600F018FD014604F108020423BD
:100CB0004FF00A0CB1FBFCFC0CEB8C04A1EB4401E3
:100CC000303102F8011C0A21BCFBF1FE0EEB8E0450
:100CD000ACEB440430345B1E714602F8024DE7D1A0
:100CE000083F012F02F10804D8DB00F015FD024691
:100CF0000B464046494600F01DFD00225B4600F0D1
:100D0000D7FA80468946CBE700002440A086010040
:100D10000000F03F84D797410DF10500201A0DF136
:100D2000050702E0401E761E7F1C39783029F9D075
:100D3000662D08BF711C03D0652D0CBF0121002159
:100D40000B9A126B8B181BB29842B8BF03461BB2AA
:100D500019001AD4814204DA785C3528A8BF3920FA
:100D600000DA30207A18521E00E05B1E12F80149AA
:100D7000491E8442F9D0392802D1785C401C78544D
:100D8000002902D57F1E5B1C761C36B29DF8301000
:100D90000B9800961BB23A4600F003F80DB0BDE880
:100DA000F08F2DE9F04786B006468A4690461D46EC
:100DB00000F09DFD012D406A376B90F8009002DA3B
:100DC00001250FF264284AF02000BDF9384066285A
:100DD00008BF641C13D0672840F08A8014F1040F08
:100DE00075DBBC4273DA96F83800641C000702D445
:100DF000BD42B8BF2F4624B23F1B48BF002724B2D4
:100E0000F068B169012C23DA4A1C30234354012FC6
:100E100003DA96F83800000703D5F06800F802906E
:100E2000521CE742B8BF7C4224B260427062E719AC
:100E3000AF42B261B8BF3D46F068B3692DB2F5610B
:100E40002A464146184400F0BDF9781BB062B0E074
:100E500022469542084416DA2A46414600F0B2F985
:100E6000B1696918601B012FB161706203DA96F8ED
:100E70003800000705D5F06800F80190F069401CC3
:100E8000F061B76295E0414600F09CF9B069201826
:100E90002D1B012F03DA96F83810090703D5F168E6
:100EA00001F80090401CB0612DB2AF42B8BF3D4682
:100EB000F068B3692DB22A4608EB0401184400F02B
:100EC00081F9B0692818B061781B706271E0BD4289
:100ED00004DA96F83810090758BF2F467F1E48BF1E
:100EE0000027BAF1670F0CBF4FF0650A4FF0450AB3
:100EF000B169F368481CB061012F18F8012B5A54EE
:100F000003DA96F83810090717D5F168431CB36166
:100F100001F80090012F10DB6D1E2DB2AF42B8BF5B
:100F20003D46F0682DB22A464146184400F04AF981
:100F3000B0692818B061781B7062F068B16901442B
:100F4000200081F800A004D42B20487001F1020891
:100F500004E02D224A7001F102086442002502AF2C
:100F600008E00A22684600F0DBFC019807F8010B54
:100F70006D1C009C21B20129F3DA022D06DA4AF039
:100F80002000652804BF302008F8010B4DB930203F
:100F900008F8010B07E06D1E02A8405D303008F82C
:100FA000010B012DF7DAF068B1690844A8EB0000E5
:100FB000F06196F8380000F0140010280DD1706927
:100FC000B1690818716A0818F1690818B16A081837
:100FD000716B8842BCBF081A306206B0BDE8F0876A
:100FE000F8B504460D4616461F46002077B116F8A0
:100FF000011BA868A047A86030B1E86A401CE862FD
:1010000000207F1EF3D1F2BD4FF0FF30F2BD000093
:10101000686A6C747A4C00006E616E004E414E003E
:10102000696E6600494E4600300000000278C9B281
:101030008A421AB11CBF10F8012FF9E718BF00202F
:101040007047000000F10103810704D010F8011B74
:1010500089B18107FAD10268B2F10131914311F0EF
:10106000803F04BF50F8042FF6E710F8011B11B1C0
:1010700010F8011BFBE7C01A70470000C9B28307D4
:1010800006D0521E22D310F8013B9942F7D11FE03F
:10109000083A13D302F1040241EA012141EA014175
:1010A00050F8043B121F21BF4B40A3F1013C2CEA36
:1010B000030C1CF0803FF3D0C9B2001F083210F8B7
:1010C000013B521E28BF91EA030FF8D818BF012038
:1010D000401E70471B4213D1094236D12AB18446C3
:1010E000B0FBF2F002FB10C2704700F021BCFCD351
:1010F0000022002370470B000200002100207047EF
:10110000904271EB030CF6D370B5B1FA81F4B3FAE7
:1011100083F52C1BA340C4F1200532FA05F63343B6
:10112000A2405FF00046E64002E05B085FEA320260
:10113000841A71EB030524BF204629467641F4D377
:1011400002000B003000002170BD012ACFD970B51C
:10115000140C20D0B1FA81F4B2FA82F5C4F1200463
:101160006419B4F12006D6D3B2405FF00044F440D5
:10117000002502E052085FEA3303C61A71EB020E43
:1011800024BF3046714664416D41F3D302000B0029
:101190002000290070BD0C46B1FBF2F102FB1145A5
:1011A0002D0445EA1045B5FBF2F402FB145580B25C
:1011B00040EA0545B5FBF2F002FB105240EA04405C
:1011C00070BD000062B38B0708D0521E11F8013BBE
:1011D00000F8013B00F024808B07F6D1830740F034
:1011E000208000BF103A07D330B4B1E83810103A6D
:1011F000A0E83810F9D230BC530724BFB1E808107A
:10120000A0E8081044BF51F8043B40F8043BD20763
:1012100024BF31F8022B20F8022B44BF0B78037057
:101220007047083A07D3B1E80810083A40F8043B81
:1012300040F804CBF7D25307E4E730B4436803F037
:1012400000420121C3F313034360002B04BF036872
:10125000002B08D10DE00368DD0F45EA440444602B
:101260005B000360491E4468E302F4D5C4F3130332
:10127000436043681A434260084630BC7047000030
:101280004FF4001C1CEB410F94BF1CEB430F09E013
:1012900041EA030C50EA4C0C52EA0C0C03D299427E
:1012A00008BF9042704714BF8B42824270470000D3
:1012B000B0B581EA030C0CF0004C40F2FF7515EA62
:1012C00011541DBF15EA1357AC42AF4239E0E4197F
:1012D00023EA455343F48013C90241F0004141EA37
:1012E000505EC7021100A7FB020200284FF0000069
:1012F000EEFB01204FF00001E3FB072118BF42F095
:101300000102401800214941E3FB0E01A4F580646D
:101310000F0302D252004041494154F101046CDDF7
:10132000470872F1004250F1000051EB0451A1F561
:1013300080115CBF41EA0C01B0BD4CEA05510020B0
:10134000B0BD05EA1357AC4214BFAF4241E050EACA
:10135000410E1CBF52EA430E02E061460020B0BDC0
:1013600024423C441BD15FEA070EF6D0090302BFBA
:1013700001460020AEF1140EB1FA81F7AEEB07047E
:1013800001FA07FE0C37C7F1200100FA07F7C84041
:101390004EEA000E23EA455343F48013A2E733F0EC
:1013A0000043B3FA83F704BFB2FA82FE77440B3FDF
:1013B000E41BB7F1200E2FBF02FA0EF3BB40C7F1BA
:1013C000200E22FA0EFE38BF43EA0E03BA40641C18
:1013D00082E750EA410E14BF52EA430E6FF000015B
:1013E0004FF4001717EB430F8ABF194617EB410F55
:1013F000B5E74CEA05510020B0BDD4F10104B4F1C9
:1014000020070FDAC4F12007520828BF42F001027A
:1014100010FA07F501FA07F7E1BF2A43E040384325
:10142000E1400FE0352C98DCC7F1200452EA40027D
:1014300020FA07F218BF42F0010231FA07F0A1408A
:101440000A43002172F1004250F1000051EB0C01FF
:10145000B0BD00002DE9F04140F2FF7581EA030CB8
:101460000CF0004C15EA11541DBF15EA1357AC429D
:10147000AF42E9E0BC41C1F31301C3F31303801A87
:10148000994143F4801304D2641E400049418018FE
:101490005941C90241EA5051B1FBF3F603FB161161
:1014A000A2FB0675D7EBC020A94102D2761E801898
:1014B0005941C90241EA5051B1FBF3FE03FB1E1131
:1014C000A2FB0E75D7EBC020A94103D2AEF1010EED
:1014D00080185941890241EA9051760546EA8E2EDC
:1014E000B1FBF3F603FB1611A2FB0675D7EB8020C8
:1014F000A94102D2761E80185941C90241EA5051D1
:101500004EEA060EB1FBF3F603FB1611A2FB0675BD
:10151000D7EBC020A94102D2761E80185941C902DA
:1015200041EA5051B1FBF3F703FB1711A2FB07355A
:10153000D3EBC020A94167F100070CBF004247F080
:10154000010766F3D5274FEA1E31B80814F5806409
:1015500014DDBD0775F1004250EB0E5051EB045104
:1015600011F5801F5CBF41EA0C01BDE8F0814CF031
:101570007F6141F0E0410020BDE8F081BD076D08CA
:1015800040EA0E5041F48011D4F10104B4F1200678
:101590000ADAC4F120060200E04001FA06F3E14055
:1015A0001843B24015430EE0342C14DCC6F120047D
:1015B00045EA40056D0820FA06F2154321FA06F0C7
:1015C000A1400D43002175F1004250F1000051EBA4
:1015D0000C01BDE8F08100205FEA0C01BDE8F0815C
:1015E000CFB992185B41B3FA83F704BFB2FA82F61F
:1015F000BF190B3FB7F120062FBF02FA06F3BB401D
:10160000C7F1200622FA06F638BF3343BA401CB1B0
:10161000E419641E2FE77F4231F00041B1FA81F4F2
:1016200004BFB0FA80F6A4190B3CB4F120062FBF1A
:1016300000FA06F1A140C4F1200620FA06F638BFF0
:101640003143A0403C1B16E7AC421ABF05EA1357D2
:10165000AF4214E050EA41061CBF52EA4306BFE71E
:1016600050EA4107304661461CBF41EA0551BDE8DA
:10167000F08152EA430C08BFC143BDE8F08100206D
:101680004FF4001616EB410F98BF16EB430F08BF3F
:1016900016EB410F24BFC14305E016EB430F0CBF0F
:1016A00061464CEA0551BDE8F0810000F446400D6A
:1016B00040EAC120490006D200F014F8004248BFB9
:1016C0006FF00040604700F00DF84FF00041884295
:1016D0008CBF084640426047400D40EAC1204900A7
:1016E00080F00D8040F00040490DA1F58061491C5B
:1016F00005D4D1F11F0154BFC840C01770474FF047
:1017000000007047010040F10980F446404200F0BB
:1017100005F851F000416047010000BF09D0B0FA60
:1017200080F18840C91CC1F58461090501EBD02115
:1017300040057047F0B44FF0004591EA030F44BFF5
:101740006B4000F001B900BF841A71EB030604D2AC
:101750006E40001BB141121973414FF4001C1CEB89
:10176000410F34BF7CEB430684E00C0DA4EB135611
:10177000362E7DDC012E43DC45EAC32343EA525377
:1017800012BFD20292025B08240545EAC12141EA58
:101790005051D2EBC020994125D407D1B0FA80F640
:1017A00010FA06F164D00020203608E0B1FA81F684
:1017B000B140C6F1200220FA02F21143B0404FEAD4
:1017C000F474B4EB465434F001064FEA74040AD8BA
:1017D000D6F50016760D04F00044F04061FA06F2EA
:1017E0005040F1404840C00A40EA415021F00041D9
:1017F00028BF5FEA500550F1000044EBD12137E0EB
:1018000045EAC323DB0A45EAC121C90AB6F120052E
:101810000EDD42EA0242120CC5F1200603FA06F67A
:10182000EB4042EA06056D42984161F100010DE08E
:1018300062FA06F5F240554063FA06FC82EA0C02B1
:10184000F3405A406D42904161EB030111F4801F57
:1018500005D1641E620502D06D004041494121F46A
:101860008011430875F1004350F1000041EB045131
:10187000F0BC70471CEB410F15D223F0004352EA35
:1018800043060BD04FEA4C0CBCEB410F04D80C0DB7
:10189000661E342EB7DDEBE7801A994150EA410607
:1018A00008BF0021E4E708BF1CEB430F28BF6FF01F
:1018B0000001DDE780B5134800F0B0F80FF24C02EC
:1018C0000FF244010160426241600FF24402826300
:1018D00081600FF24402C1600161416181618162F6
:1018E000C16201634163C2630164416401BD10B51B
:1018F000044800F093F80446206808B9FFF7DAFFBF
:10190000204610BD2CA3FF1F000000002E00000089
:1019100066616C73650000007472756500000000FC
:1019200091FBF2F303FB1211C0E900317047000094
:1019300070470000F0B44FF0004591EA030C44BF3B
:101940006B40FFF701BF00BF841A71EB030603D29F
:10195000001BB141121973414FF4001C1CEB410FE5
:1019600034BF7CEB430443E00C0DA4EB1356352E3F
:1019700050DC45EAC323DB0A45EAC121C912B6F1AE
:1019800020050DDD63FA05F6EB4086EA03051242F9
:1019900018BF45F00105C01851F100010CD213E049
:1019A00062FA06F5F2405540F3415A40B340F34025
:1019B0005A408018594107D349085FEA30005FEA6E
:1019C000350528BF45F0010501F58011420875F184
:1019D000004250F1000041EB0451F0BC4FF4001CF8
:1019E0001CEB410F38BF70470020090D09057047F7
:1019F0001CEB410F10D252EA43060BD0BCEB410F57
:101A000005D80C0DAB43661E342EB5DD02E0AB43AA
:101A100080185941F0BC7047F0BC70477047000017
:101A20001E00000032000000000000000000000066
:101A300000000000000000000000000000000000A6
:101A40000000000000004E6F6E4D61736B61626CB0
:101A50006500000000486172644661756C740000A6
:101A6000000000004D656D4D616E6167656D656ECE
:101A70007400004275734661756C740000000000CC
:101A8000000055736167654661756C740000000065
:101A90000000000000000000000000000000000046
:101AA0000000000000000000000000000000000036
:101AB0000000000000000000000000000000000026
:101AC000000000000000000000000000005356432A
:101AD000616C6C000000000000000000446562754D
:101AE000674D6F6E69746F720000000000000000A7
:101AF0000000000000000000000050656E645356B6
:101B00000000000000000000005379735469636B0B
:101B10000000000000000000444D413000000000C3
:101B200000000000000000444D41310000000000B2
:101B3000000000000000444D4132000000000000A1
:101B40000000000000444D41330000000000000090
:101B500000000000444D413400000000000000007F
:101B6000000000444D41350000000000000000006E
:101B70000000444D4136000000000000000000005D
:101B800000444D413700000000000000000000004C
:101B9000444D4138000000000000000000000044F7
:101BA0004D41390000000000000000000000444DDD
:101BB00041313000000000000000000000444D41B1
:101BC000313100000000000000000000444D4131B0
:101BD0003200000000000000000000444D4131339D
:101BE00000000000000000000000444D41313400BE
:101BF000000000000000000000444D4131350000AD
:101C00000000000000000000444D415F4572726F0B
:101C1000720000000000004D434D00000000000075
:101C20000000000000004654464C00000000000088
:101C30000000000000526561645F436F6C6C697363
:101C4000696F6E004C56445F4C5657000000000010
:101C50000000004C4C570000000000000000000095
:101C600000005761746368646F6700000000000043
:101C700000524E470000000000000000000000007D
:101C8000493243300000000000000000000000491D
:101C900032433100000000000000000000005350FB
:101CA00049300000000000000000000000535049CF
:101CB00031000000000000000000000053504932D5
:101CC000000000000000000000000043414E305FB3
:101CD0004F525F4D425F6275660043414E305F4236
:101CE00075735F4F666600000043414E305F45727A
:101CF000726F72000000000043414E305F54785F05
:101D00005761726E696E6743414E305F52785F571C
:101D100061726E696E6743414E305F57616B655FFC
:101D20005570000000526573657276656435310048
:101D300000000000526573657276656435320000FC
:101D400000000043414E315F4F525F4D425F62756C
:101D5000660043414E315F4275735F4F6666000017
:101D60000043414E315F4572726F72000000000007
:101D700043414E315F54785F5761726E696E6743BD
:101D8000414E315F52785F5761726E696E674341B1
:101D90004E315F57616B655F55700000005265738F
:101DA0006572766564353900000000005265736520
:101DB00072766564363000000000005541525430A0
:101DC0005F52585F54580000000055415254305F34
:101DD00045525200000000000055415254315F52FC
:101DE000585F54580000000055415254315F45522D
:101DF0005200000000000055415254325F52585FBB
:101E000054580000000055415254325F4552520070
:101E1000000000000055415254335F52585F54583F
:101E20000000000055415254335F455252000000FB
:101E300000000055415254345F52585F545800001E
:101E4000000055415254345F4552520000000000DA
:101E50000055415254355F52585F545800000000FD
:101E600055415254355F4552520000000000004178
:101E70004443300000000000000000000000414426
:101E800043310000000000000000000000434D50FE
:101E9000300000000000000000000000434D503101
:101EA0000000000000000000000000434D50320020
:101EB0000000000000000000000046544D3000000B
:101EC00000000000000000000046544D31000000FA
:101ED000000000000000000046544D3200000000E9
:101EE00000000000000000434D540000000000000E
:101EF00000000000000052544300000000000000F9
:101F00000000000000526573657276656438330026
:101F100000000000504954300000000000000000A4
:101F20000000005049543100000000000000000093
:101F30000000504954320000000000000000000082
:101F40000050495433000000000000000000000071
:101F50005044423000000000000000000000005526
:101F60005342300000000000000000000000555304
:101F700042444344000000000000000000454E457C
:101F8000545F313538385F54696D6572454E45543C
:101F90005F5472616E736D69740000454E45545F05
:101FA00052656365697665000000454E45545F459E
:101FB00072726F720000000000493253300000005E
:101FC00000000000000000005344484300000000EF
:101FD0000000000000000044414330000000000009
:101FE00000000000000044414331000000000000F8
:101FF00000000000005453493000000000000000C1
:10200000000000004D4347000000000000000000F9
:102010000000004C5054696D657200000000000023
:1020200000005265736572766564313032000000DD
:1020300000504F525441000000000000000000001A
:10204000504F5254420000000000000000000050B9
:102050004F52544300000000000000000000504FA9
:1020600052544400000000000000000000504F5295
:102070005445000000000000000000005265736538
:102080007276656431303800000000526573657205
:1020900076656431303900000000526573657276F0
:1020A00065643131300000000052657365727665F9
:1020B00064313131000000005265736572766564E9
:1020C000313132000000005265736572766564310B
:1020D00031330000000052657365727665643131FA
:1020E00034000000005265736572766564313135E5
:1020F0000000000052657365727665643131360008
:1021000000000052657365727665643131370000F6
:1021100000005265736572766564313138000000E5
:1021200000526573657276656431313900000000D4
:10213000008003400090034000800B4000F00F40FF
:1021400040F00F4080F00F40C0F00F4000F10F4012
:10215000F0000A1D30001800320018016000181845
:102160006400181A6E00181F780013187D00131AE7
:102170008200131C8C000E1296000E15A0000E1883
:10218000AA000E1BB4000E1EC8000C1CE1000B1EA2
:10219000FA000A1F000109080090044000A0044052
:1021A00000B0044000C0044000D0044000A006403D
:1021B00000B0064000C0064000D0064000A00E401F
:1021C00000B00E40010000000200C80003004B00F8
:1021D0000400A0000500780006000000070064006D
:1021E00008001400000000000100000002000000D0
:1021F00003000000040000000500000006000000CD
:10220000070000000800000033323130676D4E4F88
:102210003435363702040101D0A2FF1F20A3FF1F6F
:10222000D0A2FF1FD0A2FF1FD0A2FF1F410CFF1F93
:10223000280CFF1F0000000000000000000000004C
:10224000000000000000000000000000000000008E
:10225000000000000100000080B500220121502094
:1022600000F0C6FB00220121512000F0C1FB00223A
:102270000121522000F0BCFB00220121532000F07C
:10228000B7FB01BD38B5040008250121532000F03B
:1022900030FC0021502000F02CFC0DE000215120EA
:1022A00000F027FC0121502000F023FC00BF00219A
:1022B000502000F01EFC64002800451EC0B200281B
:1022C00006D02006EAD50121512000F012FCE9E7F2
:1022D00031BD000038B5040008250021532000F06E
:1022E00008FC0021502000F004FC0DE000215120EA
:1022F00000F0FFFB0121502000F0FBFB00BF00219C
:10230000502000F0F6FB64002800451EC0B20028F3
:1023100006D02006EAD50121512000F0EAFBE9E7CA
:1023200031BD10B50400B1F15000C0B2FFF7D2FFCB
:102330002000C0B2000950F01000C0B2FFF7CAFF81
:1023400014F00F00FFF7C6FF10BD70B504000025A4
:1023500008E02000C0B2FFF795FF761CF6B2802E91
:10236000F7DB6D1CEDB2082D0CDAB5F15000C0B2F0
:10237000FFF7B0FF0020FFF7ADFF1020FFF7AAFF27
:102380000026EBE770BD07E041F613210A00511E5D
:1023900092B2002AFAD1401E80B20028F4D17047D0
:1023A00010B504002020FFF795FF2000C0B2FFF712
:1023B00091FF10BD80B550F04000C0B2FFF78AFF1A
:1023C00001BD10B504008120FFF784FF2000C0B2DA
:1023D000FFF780FF10BD10B504008D20FFF77AFFD6
:1023E00054F01000C0B2FFF775FF10BD80B550F07B
:1023F000A000C0B2FFF76EFF01BD80B550F0A40091
:10240000C0B2FFF767FF01BD80B550F0A600C0B2B3
:10241000FFF760FF01BD10B50400A820FFF75AFFC9
:102420002000C0B2FFF756FF10BD80B550F0AE00DF
:10243000C0B2FFF74FFF01BD80B550F0C000C0B281
:10244000FFF748FF01BD10B50400D320FFF742FF9E
:102450002000C0B2FFF73EFF10BD10B50400D5202C
:10246000FFF738FF2000C0B2FFF734FF10BD10B5F2
:102470000400D920FFF72EFF2000C0B2FFF72AFF8B
:1024800010BD10B50400DA20FFF724FF54F002005D
:10249000C0B2FFF71FFF10BD10B50400DB20FFF72F
:1024A00019FF2000C0B2FFF715FF10BD80B5FFF780
:1024B000D3FE0121502000F01CFB0021522000F02F
:1024C00018FB3220FFF75FFF0121522000F011FBC3
:1024D0000020FFF7AAFF8020FFF7BFFF3F20FFF794
:1024E0009AFF0020FFF7AFFF0020FFF763FF0420F3
:1024F000FFF771FF0220FFF753FF0120FFF776FF80
:102500000820FFF799FF1020FFF7BBFFCF20FFF750
:1025100058FFF120FFF7ABFF4020FFF7BDFF002081
:10252000FFF76BFF0020FFF76FFF0120FFF77DFF34
:102530000020FFF70AFF00210020FFF7F2FE01BD97
:1025400038B500240025B2F12004C0B27B2801DB9D
:102550000020491CC9B2C0B2FFF7E3FE00250BE022
:10256000DFF88004E4B2062101FB04F10844EDB277
:10257000405DFFF787FE6D1CEDB2062DF0DB31BD2F
:102580002DE9F84304000D0016005FF000085FF02D
:102590000009002716E0DFF84C045FFA88F80621EE
:1025A00001FB08F108445FFA89F910F80900FFF708
:1025B00069FE19F101095FFA89F9B9F1060FEADB41
:1025C000A41D7F1CFFB2F05D002811D0FFB2F05DAA
:1025D000B0F12008E4B27F2C01DB00246D1C29003F
:1025E000C9B22000C0B2FFF79CFE5FF00009E2E72D
:1025F000BDE8F1832DE9F84304000D0017001E002B
:102600002E222900C9B22000C0B2FFF799FFBFB245
:102610004FF47A7097FBF0F0BFB24FF47A7197FBEA
:10262000F1F201FB1271642291FBF2F8BFB2642156
:1026300097FBF1F201FB12710A2291FBF2F9BFB292
:102640000A2197FBF1F201FB1277F6B2012E06D0B8
:1026500068D3032E21D00CD3042E3CD062E017F1B6
:102660003002D2B22900C9B2A01DC0B2FFF768FF84
:1026700058E019F13002D2B22900C9B2A01DC0B28F
:10268000FFF75EFF17F13002D2B22900C9B214F190
:102690000C00C0B2FFF754FF44E018F13002D2B290
:1026A0002900C9B2A01DC0B2FFF74AFF19F13002DC
:1026B000D2B22900C9B214F10C00C0B2FFF740FF3A
:1026C00017F13002D2B22900C9B214F11200C0B21F
:1026D000FFF736FF26E010F13002D2B22900C9B26E
:1026E000A01DC0B2FFF72CFF18F13002D2B22900B2
:1026F000C9B214F10C00C0B2FFF722FF19F1300289
:10270000D2B22900C9B214F11200C0B2FFF718FF0B
:1027100017F13002D2B22900C9B214F11800C0B2C8
:10272000FFF70EFFBDE8F1832DE9F84F05000E001D
:10273000914606270024484600F052FA0400484615
:1027400000F04EFA00F06EFA0100484600F082FAFE
:10275000A64900F0F3FA00F043FA80464846A24941
:1027600000F058FB07D22D223100C9B22800C0B2B8
:10277000FFF7E6FE06E02B223100C9B22800C0B206
:10278000FFF7DEFE002C00D564420020E4B242F2E6
:10279000107194FBF1F201FB12414FF47A7291FB3C
:1027A000F2F9E4B24FF47A7194FBF1F201FB1241B9
:1027B000642291FBF2FAE4B2642194FBF1F201FB92
:1027C00012410A2291FBF2FBE4B20A2194FBF1F2DE
:1027D00001FB1244C0B2002831D010F13002D2B255
:1027E0003100C9B2A81DC0B2FFF7AAFE19F130022C
:1027F000D2B23100C9B215F10C00C0B2FFF7A0FE91
:102800001AF13002D2B23100C9B215F11200C0B2D1
:10281000FFF796FE1BF13002D2B23100C9B215F1BA
:102820001800C0B2FFF78CFE14F13002D2B23100B2
:10283000C9B215F11E00C0B2FFF782FE75E05FFA63
:1028400089F9B9F1000F28D0052719F13002D2B269
:102850003100C9B2A81DC0B2FFF772FE1AF13002F2
:10286000D2B23100C9B215F10C00C0B2FFF768FE58
:102870001BF13002D2B23100C9B215F11200C0B260
:10288000FFF75EFE14F13002D2B23100C9B215F189
:102890001800C0B2FFF754FE47E05FFA8AFABAF1B7
:1028A000000F1ED004271AF13002D2B23100C9B293
:1028B000A81DC0B2FFF744FE1BF13002D2B23100B6
:1028C000C9B215F10C00C0B2FFF73AFE14F13002A4
:1028D000D2B23100C9B215F11200C0B2FFF730FE1A
:1028E00023E05FFA8BFBBBF1000F14D003271BF131
:1028F0003002D2B23100C9B2A81DC0B2FFF720FE2B
:1029000014F13002D2B23100C9B215F10C00C0B2DC
:10291000FFF716FE09E0022714F13002D2B23100AF
:10292000C9B2A81DC0B2FFF70BFEB8F1000F01D568
:10293000D8F100089DF80000002806D0022819D020
:1029400004D304283CD028D349E048E09DF8003067
:102950004FF47A7098FBF0F0020092B23100C9B2E5
:10296000FFB2062000FB07F050FA85F0C0B2FFF777
:1029700041FE34E09DF80030642098FBF0F0020046
:1029800092B23100C9B2FFB2062000FB07F050FA44
:1029900085F0C0B2FFF72EFE21E09DF800300A203E
:1029A00098FBF0F0020092B23100C9B2FFB20620EB
:1029B00000FB07F050FA85F0C0B2FFF71BFE0EE0F7
:1029C0009DF80030424692B23100C9B2FFB20620F3
:1029D00000FB07F050FA85F0C0B2FFF70BFEBDE830
:1029E000F18F0000A04E000095BFD63300401C467A
:1029F00070B504000E0015004FF480712000C0B2C5
:102A000000F01AFA76B2002E11D17348E4B26111C7
:102A100050F821007049E4B2621151F8221049695E
:102A2000012214F01F039A409143416136E06A4845
:102A3000E4B2611150F821006749E4B2621151F823
:102A400022104969012214F01F039A401143416189
:102A5000EDB2002D11D16048E4B2611150F82100AF
:102A60000068012114F01F02914088435A49E4B2E2
:102A7000621151F82210086010E05748E4B2611169
:102A800050F821000068012114F01F029140084312
:102A90005149E4B2621151F82210086070BD49B288
:102AA000002913D14C49C0B2421151F822104A4AB0
:102AB000C0B2431152F823205269012310F01F00C5
:102AC00013FA00F032EA0000486111E04249C0B256
:102AD000421151F82210404AC0B2431152F823204B
:102AE0005269012310F01F0013FA00F010434861EF
:102AF000704738B504000D003748E4B2611150F852
:102B00002100406914F01F01C840C00703D46321AD
:102B1000324800F0EDF9EDB2002D11D12E48E4B2AB
:102B2000611150F821000068012114F01F0291404A
:102B300088432949E4B2621151F82210086010E07C
:102B40002548E4B2611150F821000068012114F019
:102B50001F02914008432049E4B2621151F822104B
:102B6000086031BD10B504001B48E4B2611150F893
:102B70002100406914F01F01C840C00703D47B2125
:102B8000164800F0B5F91448E4B2611150F821007C
:102B9000012114F01F029140C16010BD10B5040066
:102BA0000D48E4B2611150F82100406914F01F0192
:102BB000C840C00703D58C21084800F099F90648A1
:102BC000E4B2611150F82100006914F01F01C840FF
:102BD00010F0010010BD00002C0BFF1FAC520000D4
:102BE0004100090E7F3915D4D1F11F0114D44000E2
:102BF00007D2C00140F00040C84048BF6FF000401D
:102C00007047C00140F00040C8404CBF4FF000404A
:102C1000404270470020704700424FF0004058BFCC
:102C2000C0437047002840F10780F446404200F05E
:102C300003F850F0004060470AD0B0FA80F18840B5
:102C4000D1F19D01C905020672F1004241EB10204D
:102C50007047000090EA010F44BF81F0004100F08E
:102C60008FB900BF431A4FF000423EBF5340C01A15
:102C7000C91800BFD3095FEAD05C13EB400F34BF23
:102C8000B3EB410F40E07CEBD1530CD342EA01217E
:102C900022D8D1EB402009D3400A28BF5FEA500177
:102CA00040EBCC507047401A15D04002B0FA80F289
:102CB000521C9040400A4FEA3C23B3EB026384BFAE
:102CC00000EB730007E040F400001A16DB07C2F1C6
:102CD0000102D04018437047182BFCDC31FA03F294
:102CE00002FA03F3591A38BF42F00102D2EB402036
:102CF0003CBF4000ACF1010C5FEACC5CC20572F154
:102D000000414CEB5020704713EB400F0FD24B00AB
:102D100009D0ACEBD153022B03DB4902172BDDDDCD
:102D200070479143401A4300D5D10020704713EB00
:102D3000410FD0D36FF0000070470000FF2212EA6D
:102D4000D05C1DBF12EAD153944593422BE09C44C2
:102D5000D30780EA01021A4043EA002043EA012136
:102D6000A1FB0030410038BF40007CF17F010BDB4C
:102D7000FE294ADA5B0842EAC15153EA006373F163
:102D8000004C51EB10207047D1F1080CDCF1200110
:102D90002FDB5B0810FA01F10B4373F1004120FABD
:102DA0000CF05041704794451CBF02EAD153934246
:102DB00080EA010202F000421DD0400019D0490013
:102DC00017D05BB9634514D00902B1FA81F3994079
:102DD000BCEB030CC00140F00040C1E70002B0FAB8
:102DE00080FC10FA0CF0B3EB0C0CC90141F000416F
:102DF000B6E71000704740000AD0490008D010F133
:102E0000807F94BF11F1807F02E042F0FF40704765
:102E1000D04370474FF0807C1CEB400F94BF1CEBFD
:102E2000410F05E040EA010C5FEA4C0C01D28842F8
:102E3000704718BF8142704710B42B4A13684FF493
:102E400000740200D2B2520914FA02F21A43264B5D
:102E50001A60264AC0B2431152F82320012310F011
:102E60001F04A340C2F8A030204AC0B2431152F858
:102E70002320C0B210F01F0042F8201010BC704791
:102E800010B4194A13684FF400740200D2B2520908
:102E900014FA02F21A43144B1A60144AC0B24311D6
:102EA00052F82320012310F01F04A340C2F8A030E1
:102EB00031F4E0610D4AC0B2431152F82320C0B290
:102EC00010F01F0352F8232012F4E0621143074A66
:102ED000C0B2431152F82320C0B210F01F0042F8D4
:102EE000201010BC7047000038800440880BFF1F82
:102EF00038B504000D00002000F07CF82A00210005
:102F0000174800F0AFF8002000F090F84FF47A7006
:102F100000F0D5F8F2E710B50400210049B2042012
:102F200000F0FBF9200010BD10B50E480468012028
:102F300000F060F8012000F079F80B48E4B20F21AE
:102F400001FB04F100EB0102E4B22100074800F0AC
:102F500089F84FF47A7000F0B2F8EBE70000000057
:102F6000C054000004ED00E01804FF1FAC53000043
:102F700090EA010F44BF81F00041FFF773BE00BF2C
:102F8000421A3CBF801A89184FF0004CC0F3C75258
:102F9000FF2A24D0C1F3C75313B3D21AD2F11903B5
:102FA00027DD4CEA01214CFA03F321EA0303D14067
:102FB000C20D4CEA0020401834BF20EA0C004CEA55
:102FC0005000D20553EA006373EB0C0C52EB102057
:102FD000420012F1807F38BF7047C00DC0057047B6
:102FE000490212BF9A4200EB5120F8E7D2F11703D1
:102FF000D9D5704710B5040064B2042C07DA012259
:103000000121174864B2005DFFF7F2FC0DE00424D3
:1030100006E001220121124864B2005DFFF7E8FCDE
:103020002000441E40B20028F3D110BD10B50400AA
:1030300064B2042C05DA0A4864B2005DFFF792FD21
:103040000BE0042404E0064864B2005DFFF78AFD4B
:103050002000441E40B20028F5D110BD0000000041
:10306000000CFF1F0EB400B582B003A90091024608
:103070006B460121034878440A30FDF7CDF906BCC0
:103080005DF810FBAD24000010B50400002C15D035
:10309000B4F1807F03D329210F48FFF729FF0020D7
:1030A0000E4908600E48046000200E4908600520A3
:1030B0000A49086009480068C003FBD510BD10B577
:1030C000040003E008480068FFF7DEFF2000441E0C
:1030D0000028F7D110BD0000EC52000010E000E025
:1030E00014E000E018E000E0C40CFF1F012110F024
:1030F0001F029140DFF88C2240B2400942F82010B4
:10310000704770B504000D0064B2002C08D0022C8A
:103110002CD018D3042C4FD03BD3052C5FD071E0BA
:10312000DFF86402006850F48060DFF85C12086029
:103130004FF440716620FFF77FFE4FF44071672027
:10314000FFF77AFE5EE0DFF84002006850F40060AE
:10315000DFF8341208604FF440714320FFF76CFE33
:103160004FF440714420FFF767FE4BE0DFF8180290
:10317000006850F48050DFF8101208604FF440717E
:103180006320FFF759FE4FF440716220FFF754FEB1
:1031900038E0DFF8F401006850F40050DFF8E8117F
:1031A00008604FF440715020FFF746FE4FF4407125
:1031B0005120FFF741FE25E0DFF8D001006850F410
:1031C0008060DFF8C81108604FF440719920FFF764
:1031D00033FE4FF440719820FFF72EFE12E0DFF827
:1031E000AC01006850F40060DFF8A01108604FF4F3
:1031F00040716820FFF720FE4FF440716920FFF70F
:103200001BFEFFE7DFF8880164B250F82400C078A5
:1032100010F0F300DFF8781164B251F82410C87090
:10322000DFF86C0164B250F824008078DFF8601198
:1032300064B251F82410887064B2002C02D064B2D9
:10324000012C05D1534800684FF47A71484304E0DB
:10325000514800684FF47A7148432901B0FBF1F6F8
:10326000B6B2B6F5005F01DB41F6FF76B0FBF5F0D4
:10327000B6B2B0EB0615ADB2202D03DBDC2147481A
:10328000FFF736FE424864B250F82400007810F090
:10329000E000C6F3042108433D4964B251F824100C
:1032A00008703B4864B250F824004670384864B255
:1032B00050F82400807A10F0E00015F01F01084358
:1032C000334964B251F824108872314864B250F81E
:1032D0002400007C50F088002D4964B251F824107D
:1032E00008742B4864B250F82400C07850F00C00E9
:1032F000274964B251F82410C87070BD244A40B206
:1033000052F8202012799206F8D5214A40B252F89C
:10331000200090F90700087070471D4A40B252F82B
:10332000202012791206F8D5194A40B252F820002E
:10333000C171704770B504000D00160008E095F9E2
:103340000000010049B2200040B2FFF7E6FF6D1C0B
:103350003000461E0028F2D170BD80B50C4940B245
:1033600051F82010C97851F02001094A40B252F8B2
:103370002020D17040B240002D3040B2FFF7B6FEA1
:1033800001BD000000E100E03480044028800440DA
:103390009C0BFF1FC40CFF1FCC0CFF1F2C53000005
:1033A000F0B5ADF5A06DA9B000F0E7F80026012654
:1033B0000024F0A84FF4F07100F0ECF978A84FF475
:1033C000F07100F0E7F9002568464FF4F07100F065
:1033D000E1F900200021002212E05B1C9BB2A02B2F
:1033E0000DDA0026DFF8947392B25FF0A00C0CFBAC
:1033F00002FC67449BB2FF5CFF2FEED10126521CFA
:10340000002E01D00023E9E792B2561E320000E000
:10341000521C92B2782A80F28680002300E05B1C66
:103420009BB29F2B1BDAD54F92B25FF0A00C0CFB26
:1034300002FC67449BB2FF5C002FF0D1CF4F92B2E9
:103440005FF0A00C0CFB02FC67449BB21F447F782A
:10345000FF2FE4D19BB2F0AF92B247F822300123A4
:1034600011E078AF92B257F822700DF5707C92B2ED
:103470005CF822C0674505DA9F270DF5F07C92B213
:103480004CF822705B1C9BB2A02B1CDABB4F92B293
:103490005FF0A00C0CFB02FC67449BB21F4417F8C2
:1034A000017CFF2FDDD1B54F92B25FF0A00C0CFB79
:1034B00002FC67449BB2FF5C002FD2D19BB278AF75
:1034C00092B247F8223078AB92B253F82230F0AF84
:1034D00092B257F82270DB1B6F4692B247F8223047
:1034E0006B4692B253F82230002B08D06B4692B252
:1034F00003EB820353F8043C002B00D1491C6B46BC
:1035000092B253F82230002B08D16B4692B203EBF3
:10351000820353F8043C002B00D0491C02297FF49D
:1035200077AF100080B232000CE0694692B251F8D9
:1035300022108D4205DA694692B251F8225092B2B9
:103540001400521C92B29042EFDAF0A850F8240016
:1035500078A951F824100818801C022190FBF1F082
:1035600087490880684650F82400864908808648C4
:1035700004800DF5A06D29B0F0BD2DE9F04FADF53B
:10358000806D89B0060008A84FF4806100F002F950
:103590000024002700200390002002900025002036
:1035A0000021CDE9060100220023002004905FF0F5
:1035B000000A5FF0000B5FF000085FF000093000C8
:1035C000002121E008AB6D4E89B25FF0A00C0CFB2E
:1035D00001FC664492B2B65C0DF1200CDFF89CE170
:1035E00089B25FF0A00808FB01F8C64492B21EF849
:1035F00002E05CF82EC01CF1010C43F826C0521CFE
:1036000092B2A02ADEDB491C89B2782901DA0022B5
:10361000F6E7002613E0B6B208A9B6B251F82610B4
:1036200001FB0644039908AAB6B252F826205118A5
:103630000391B6B2864201D1039D2700761CB6B233
:10364000FF2EE8DD060059E0B6B208A8B6B250F881
:10365000260000FB06773800FEF754F800224B4B9B
:10366000FDF726FE804689462800FEF74BF802004B
:103670000B0040464946FDF7EDFE82468B46E01BB7
:10368000FEF740F80022414BFDF712FE80468946C6
:103690000298FEF737F802000B0040464946FDF756
:1036A000D9FE80468946029800FB05F0FEF72AF80D
:1036B000CDE900015046594642464B46FEF73AF8DE
:1036C000DDE90023FDF7F4FDCDE900015046594640
:1036D00042464B46FEF72EF802000B00DDE90001E2
:1036E000FDF7E6FD02000B00DDE90601FDF7C8FD70
:1036F00003D2CDE90623B6B20496761CB6B2B02E3C
:103700000CDA08A8B6B250F8260045190398401BF9
:103710000290002DF1D00298002895D1002000E001
:10372000401C80B2782823DA002109E0134A80B2D5
:10373000A02303FB00F31A4489B2FF235354491C0E
:1037400089B2A029ECDA049A114B80B2A02404FBC0
:1037500000F4234489B25B5C9A42E7DB074A80B2FB
:10376000A02303FB00F31A4489B200235354E6E775
:103770000DF5806D09B0BDE8F08F0000D00CFF1F83
:1037800020A3FF1F24A3FF1F22A3FF1F0000F03F61
:10379000D057FF1F002200F001B8000000B500BFA5
:1037A000130096469446103928BFA0E80C50FAD86A
:1037B0005FEA417C28BF0CC048BF40F8042BC90712
:1037C00028BF20F8022B48BF00F8012B00BD0000E5
:1037D0000021DFF8C42311600021DFF8C02311604D
:1037E00000210DE00022DFF8B8331A600022DFF874
:1037F000B4331A600122DFF8AC331A604000491C70
:10380000082906DA0206EDD50122DFF894331A60A2
:10381000ECE70120DFF88013086070470021DFF833
:10382000782311600121DFF87423116000210DE07D
:103830000022DFF86C331A600022DFF868331A6068
:103840000122DFF860331A604000491C082906DABB
:103850000206EDD50122DFF848331A60ECE70120BB
:10386000DFF834130860704710B50400200080B200
:10387000000AC0B2FFF7D2FF2000C0B2FFF7CEFFB0
:1038800010BD80B50020DFF8201308609620FFF7F8
:1038900016FC0120DFF8101308609620FFF70FFCDC
:1038A00001BD80B5002201218420FFF7A1F800228C
:1038B00001218520FFF79CF8002201218620FFF7D7
:1038C00097F8002201218720FFF792F800220121BA
:1038D0008820FFF78DF8FFF7D4FFCB20FFF778FFA4
:1038E0003920FFF79BFF2C20FFF798FF0020FFF700
:1038F00095FF3420FFF792FF0220FFF78FFFCF20C4
:10390000FFF766FF0020FFF789FFC120FFF786FF62
:103910003020FFF783FFE820FFF75AFF8520FFF7ED
:103920007DFF0020FFF77AFF7820FFF777FFEA207E
:10393000FFF74EFF0020FFF771FF0020FFF76EFF3B
:10394000ED20FFF745FF6420FFF768FF0320FFF736
:1039500065FF1220FFF762FF8120FFF75FFFF7206E
:10396000FFF736FF2020FFF759FFC020FFF730FF99
:103970002320FFF753FFC120FFF72AFF1020FFF796
:103980004DFFC520FFF724FF3E20FFF747FF28200B
:10399000FFF744FFC720FFF71BFF8620FFF73EFF1E
:1039A0003620FFF715FF6820FFF738FF3A20FFF7B2
:1039B0000FFF5520FFF732FFB120FFF709FF00206E
:1039C000FFF72CFF1820FFF729FFB620FFF700FFB5
:1039D0000820FFF723FF8220FFF720FF2720FFF7B3
:1039E0001DFFF220FFF7F4FE0020FFF717FF26204F
:1039F000FFF7EEFE0120FFF711FFE020FFF7E8FEE2
:103A00000F20FFF70BFF3120FFF708FF2B20FFF7F8
:103A100005FF0C20FFF702FF0E20FFF7FFFE082036
:103A2000FFF7FCFE4E20FFF7F9FEF120FFF7F6FE50
:103A30003720FFF7F3FE0720FFF7F0FE1020FFF717
:103A4000EDFE0320FFF7EAFE0E20FFF7E7FE092058
:103A5000FFF7E4FE0020FFF7E1FEE120FFF7B8FEEC
:103A60000020FFF7DBFE0E20FFF7D8FE1420FFF743
:103A7000D5FE0320FFF7D2FE1120FFF7CFFE07206F
:103A8000FFF7CCFE3120FFF7C9FEC120FFF7C6FECD
:103A90004820FFF7C3FE0820FFF7C0FE0F20FFF706
:103AA000BDFE0C20FFF7BAFE3120FFF7B7FE36202F
:103AB000FFF7B4FE0F20FFF7B1FE1120FFF788FEDD
:103AC0007820FFF7FCFA2920FFF782FE2C20FFF771
:103AD0007FFE01BDF8B504000D0016001F002A206E
:103AE000FFF776FE200080B2000AC0B2FFF796FE14
:103AF0002000C0B2FFF792FE300080B2000AC0B2D0
:103B0000FFF78CFE3000C0B2FFF788FE2B20FFF7D6
:103B10005FFE280080B2000AC0B2FFF77FFE2800D7
:103B2000C0B2FFF77BFE380080B2000AC0B2FFF7D8
:103B300075FE3800C0B2FFF771FE2C20FFF748FE7B
:103B4000F1BD2DE9F8430500884616001F003B0033
:103B50009BB2320092B2414689B2280080B2FFF790
:103B6000B9FF089C0DE0200080B2FFF77DFE19F13F
:103B700001093000494680B289B28842F3D218F177
:103B800001083800414680B289B2884201D3A94673
:103B9000EFE7BDE8F18300002020FE431820FE433C
:103BA0001420FE431020FE431C20FE43DFF800F0EB
:103BB000490CFF1FDFF8941340B231F8201040B2D7
:103BC000401E102880F067810020DFF884231070E9
:103BD00089B2512904DA0020DFF87423507078E0AC
:103BE00089B2A12904DA0120DFF86423507070E063
:103BF00089B2F12904DA0220DFF85423507068E01A
:103C000089B2B1F5A07F04DC0320DFF844235070B3
:103C10005FE089B2B1F5C87F04DC0420DFF830230F
:103C2000507056E089B2B1F5F07F04DC0520DFF872
:103C3000202350704DE089B2B1F50C7F04DC0620E2
:103C4000DFF80C23507044E089B2B1F5207F04DC2A
:103C50000720DFF8FC2250703BE089B2B1F5347FD9
:103C600004DC0820DFF8E822507032E089B2B1F5B8
:103C7000487F03DC0920B64A50702AE089B2B1F5CA
:103C80005C7F03DC0A20B24A507022E089B2B1F5B1
:103C9000707F03DC0B20AE4A50701AE089B2B1F598
:103CA000826F03DC0C20AA4A507012E089B2B1F591
:103CB0008C6F03DC0D20A64A50700AE089B2B1F582
:103CC000966F03DC0E20A24A507002E00F20A04A3B
:103CD000507089B21A2903DA00209D4A907069E079
:103CE00089B2332903DA0120994A907062E089B2DF
:103CF0004C2903DA0220964A90705BE089B265296C
:103D000003DA0320924A907054E089B27E2903DAE4
:103D100004208F4A90704DE089B2972903DA05207C
:103D20008B4A907046E089B2B02903DA0620884AAF
:103D300090703FE089B2C92903DA0720844A907065
:103D400038E089B2E22903DA0820814A907031E034
:103D500089B2FB2903DA09207D4A90702AE089B2F2
:103D6000B1F58A7F03DA0A20794A907022E089B29D
:103D7000B1F5967F03DC0B20754A90701AE089B28A
:103D8000B1F5A37F03DA0C20714A907012E089B27A
:103D9000B1F5AF7F03DC0D206D4A90700AE089B267
:103DA000B1F5BC7F03DA0E20694A907002E00F2063
:103DB000674A907089B21A2903DA00206449C870F2
:103DC00069E089B2332903DA01206149C87062E0F1
:103DD00089B24C2903DA02205D49C8705BE089B2E0
:103DE000652903DA03205A49C87054E089B27E2954
:103DF00003DA04205649C8704DE089B2972903DAE6
:103E000005205349C87046E089B2B02903DA06207C
:103E10004F49C8703FE089B2C92903DA07204C49ED
:103E2000C87038E089B2E22903DA08204849C8702E
:103E300031E089B2FB2903DA09204549C8702AE03C
:103E400089B2B1F58A7F03DA0A204149C87022E0BD
:103E500089B2B1F5967F03DC0B203D49C8701AE0AA
:103E600089B2B1F5A37F03DA0C203949C87012E09A
:103E700089B2B1F5AF7F03DC0D203549C8700AE087
:103E800089B2B1F5BC7F03DA0E203149C87002E077
:103E90000F202F49C870704710B50400200040B2B1
:103EA000FFF788FE2B48007810F0FD0029490870C4
:103EB0002848007850F0100026490870B82026499C
:103EC000087026480078C006FBD424480078C0F368
:103ED0008100C0B20228F8D11D48C3781C488278FE
:103EE0001B4841781A480078FFF760FE174864B213
:103EF00000EB8400807810F01F0019490870134807
:103F000064B200EB8400C07810F01F0050F0400055
:103F100014490870114800788006FBD50F480078D6
:103F20004006FBD50C48007810F03F000A490870A5
:103F30000A480078C0F38100C0B20328F8D10348D2
:103F400064B230F82400C0B210BD0000400BFF1F67
:103F5000840BFF1F0140064000400640064006401B
:103F600004400640054006402DE9F84F0026DFF8E2
:103F70003092DFF8308200F0C9F9002342F210726B
:103F80000421002000F081FA002342F21072052182
:103F9000002000F07AFA002342F21072062100207D
:103FA00000F073FA002342F210720721002000F0A3
:103FB0006CFA002342F210720021002000F065FA32
:103FC000002342F210720121002000F05EFA00236B
:103FD00042F210720221002000F057FA002342F250
:103FE00010720321002000F050FA3620FEF7D6FDB3
:103FF0003720FEF7D3FD3420FEF7D0FD3520FEF745
:10400000CDFD070050E06848B0F90000FDF77AFBED
:10401000664A674BFDF74CF904000D006248B0F9A1
:104020000000FDF76FFB22002B00FDF741F90400B3
:104030000D005D48B0F90000FDF764FB5D4A5E4B82
:10404000FDF736F902000B0020002900FDF772FB96
:104050005A4A5B4BFDF76EFC5A4A1488FDF726FB63
:10406000201A594908804146484600F033FB4E4823
:10407000B0F90000332805DB0F2000F0B3F80A2068
:10408000FFF71DF80A2E06DB142000F0F0F87FF091
:10409000130000F020F94B48B0F900504248B0F945
:1040A00000A04A48B0F90040002000F0E3FB0028DF
:1040B00004D1474800680A3045490860012000F0F3
:1040C000D9FB002804D1424800680A3840490860FA
:1040D00032A206210020FEF753FA01239B463C48FA
:1040E0000068FEF79FFD02005B4606210A20FEF7EE
:1040F0001BFB384800780028D6D0002035490870CE
:1041000033480068FFF74CF9FFB2012F01D100F0EE
:10411000C9FB2C48B0F90000012800D1761C2948C1
:10412000B0F90000012800D00026701E09289ED298
:1041300026480480234805801B48A0F800A0214899
:10414000B0F900005028FFF65EAF1748B0F9000044
:10415000FDF7D8FA154A204BFDF7AAF804000D0028
:104160001148B0F90000FDF7CDFA22002B00FDF751
:104170009FF804000D000C48B0F90000FDF7C2FAEA
:104180000C4A0D4BFDF794F822002B00FDF7D2FBF3
:10419000124A134BFDF7CEFB5EE70000540000000F
:1041A0003333D340EC51B83E22A3FF1FC8EA56CFA9
:1041B00049EF9B3F91ED7C3F355E0840C3F5285C9D
:1041C0008FC2554020A3FF1F26A3FF1F24A3FF1F5C
:1041D0001404FF1F29A3FF1F49EF9BBF3D0AD7A36C
:1041E000703D524010B5040022000421002000F070
:1041F00001FA00220521002000F0FCF9220006212E
:10420000002000F0F7F900220721002000F0F2F969
:1042100022000021002000F0EDF900220121002001
:1042200000F0E8F922000221002000F0E3F900226A
:104230000321002000F0DEF910BD10B50400002CB1
:104240000AD422000421002000F0D4F90022052124
:10425000002000F0CFF909E000220421002000F046
:10426000C9F962420521002000F0C4F910BD10B563
:104270000400002C0AD422000321002000F0BAF927
:1042800000220221002000F0B5F909E000220321FC
:10429000002000F0AFF962420221002000F0AAF9EC
:1042A00010BD10B50400002C0AD422000621002005
:1042B00000F0A0F900220721002000F09BF909E09E
:1042C00000220621002000F095F96242072100201B
:1042D00000F090F910BD10B50400002C0AD42200A3
:1042E0000121002000F086F900220021002000F0CA
:1042F00081F909E000220121002000F07BF96242EF
:104300000021002000F076F910BD000080B5FEF716
:10431000CDF8FFF7C6FA164800F0B6FB002000F013
:1043200075FA012000F072FA022000F06FFA032003
:1043300000F06CFA002200213520FEF759FB002224
:1043400000213620FEF754FB002200213720FEF723
:104350004FFB002200213420FEF74AFB054969206B
:1043600000F069FC0449102000F065FC01BD00BFAD
:10437000D057FF1F115200005952000080B540B2C3
:10438000002803D0022864D048D37DE0DFF82C0356
:10439000006850F08070DFF82423106049B20029D3
:1043A0000BD0022915D00ED304291ED017D306290D
:1043B00027D020D307292AD02FE04FF48061412055
:1043C000FEF73AFD60E04FF480614220FEF734FDD5
:1043D000F8E74FF480614320FEF72EFDF2E74FF43B
:1043E00080614420FEF728FDECE74FF480616420F3
:1043F000FEF722FDE6E74FF480616520FEF71CFD25
:10440000E0E74FF480616620FEF716FDDAE74FF42F
:1044100080616720FEF710FDD4E735E0DFF89C02ED
:10442000006850F00070DFF89422106049B2002953
:1044300002D0012906D00BE04FF440710C20FEF7AA
:10444000FBFC21E04FF440710D20FEF7F5FCF8E78E
:104450001AE0DFF86C02006850F08070DFF860222C
:10446000106049B2002902D0012906D00BE04FF4B8
:1044700040710A20FEF7E0FC06E04FF440710B208B
:10448000FEF7DAFCF8E7FFE701BD2DE9F04704008D
:104490000D0016001F0064B2002C0ED064B2012C77
:1044A00002D064B2022C02D16DB2022D05DB40F2C3
:1044B0008511DFF81002FEF71BFD290049B220002C
:1044C00040B2FFF75BFFDFF8000200684FF47A713B
:1044D00001FB00F95FEA1940B0FBF6F05FF0000A5B
:1044E00001E01AF1010A80B2010051FA0AF1012932
:1044F000F7DA5FFA8AFABAF1080F05DB4FF4D071E8
:10450000DFF8C001FEF7F4FC39FA0AF9B9FBF6F05E
:1045100080B2DFF8B81164B241F8240064B2002C14
:1045200003D0022C11D008D317E080B2411C01FB4C
:1045300007F16422B1FBF2F80FE080B2411C01FBED
:1045400007F16422B1FBF2F807E080B2411C01FBE5
:1045500007F16422B1FBF2F8FFE7DFF8741164B2EF
:1045600051F824106DB201EBC501DFF8642164B28B
:1045700052F824206DB202EBC502D26832F0040278
:10458000CA60DFF84C1164B251F824106DB201EB2F
:10459000C5012822CA605FFA8AFA1AF0070151F0B1
:1045A0000801DFF82C2164B252F82420116080B297
:1045B000DFF81C1164B251F8241088600020DFF885
:1045C000101164B251F82410C864DFF8040164B219
:1045D00050F824006DB200EBC5001FFA88F8C0F84F
:1045E00010800020DFF8E81064B251F82410486011
:1045F000BDE8F087F8B504000D001600002064B295
:10460000002C0ED064B2012C02D064B2022C02D174
:104610006DB2022D05DB4FF4F371DFF8A800FEF751
:1046200067FC64B2002C03D0022C13D009D31AE02B
:10463000652E05D34FF4F671DFF88800FEF758FCBD
:1046400011E0652E05D34FF4F871DFF87800FEF71E
:104650004FFC08E0652E05D34FF4FA71DFF86400D3
:10466000FEF746FCFFE7DFF8640064B250F8240070
:1046700064B2002C03D0022C0FD007D314E0401CEE
:1046800000FB06F06421B0FBF1F70DE0401C00FBDD
:1046900006F06421B0FBF1F706E0401C00FB06F0D9
:1046A0006421B0FBF1F7FFE7DFF8240064B250F8B3
:1046B00024006DB200EBC5000761F1BD3C800440F1
:1046C0003080044024540000CC0CFF1F940CFF1FCA
:1046D000200BFF1F10B5494A90604848C160474809
:1046E000008A46494882464800884449088243482F
:1046F000B0F91000FEF796FA4049C968FEF71EFBB4
:1047000004003E48B0F910003C49B1F91210401ABB
:10471000FEF788FA39498968FEF710FB2100FEF799
:1047200027FCFEF75DFA354988823448B0F9140059
:104730001F2802DB1E20314988823048B0F914005E
:1047400010F11E0F03DA7FF01D002C4988822B48E0
:10475000B0F91400002828D42A4800682A49B1F981
:104760000010401A2549B1F914104018FFF765FDF3
:10477000244800682449B1F90010401A1F49B1F9D2
:1047800014104018FFF773FD1E4800681E49B1F968
:104790000010401AFFF785FD1A4800681A49B1F960
:1047A0000010401AFFF797FD27E0164800681649E9
:1047B000B1F90010401AFFF740FD12480068124995
:1047C000B1F90010401AFFF752FD0E4800680E497B
:1047D000B1F90010401A0949B1F91410401AFFF755
:1047E00060FD084800680849B1F90010401A034903
:1047F000B1F91410401AFFF76EFD10BDA00CFF1F99
:1048000026A3FF1F1004FF1F24A3FF1F10B50400E1
:1048100064B2082C0DDA00220021214864B2005D48
:10482000FEF7E6F803211E4864B2005DFEF728FBA0
:1048300013E008240CE000220021194864B2005D56
:10484000FEF7D6F80321164864B2005DFEF718FBA8
:104850002000441E40B20028EDD110BD80B51049A3
:1048600040B2085CFEF79AF9002801D1002000E070
:10487000012002BD10B50400200040B2FFF7EEFF9A
:1048800000280AD16420FEF71AFC200040B2FFF78E
:10489000E5FF002801D1002000E0012010BD00004C
:1048A000F80BFF1F80B500F003F800F025F801BDFC
:1048B00038B50020002077239F2200210020FFF739
:1048C00009F9002400E0641C782C14DA002503E0C8
:1048D0000020FEF7C9FF6D1CA02DF4DA1548A021B9
:1048E00001FB04F10844405DFF28F1D14FF6FF7051
:1048F000FEF7BAFFEFE731BD10B582B0002415E036
:104900000D48B0F90000001EA0280ED20A48028807
:10491000E4B24FF47840009023009BB292B22100A1
:1049200089B2100080B2FFF70CF9641CE4B2772C56
:10493000E6DB13BDD00CFF1F20A3FF1F012110F0E9
:104940001F029140DFF8802240B2400942F8201057
:104950007047012110F01F029140DFF8702240B231
:10496000400942F82010704740B2002809D50901DB
:10497000DFF85C2240B210F00F00104400F8041C75
:1049800004E00901DFF84C2240B21154704770B4C2
:10499000DFF844422468012585402C438E4D2C606D
:1049A0001C006404640C8D4D40B246013544EC8219
:1049B0005B045B0C894C40B245012C44E383874B7C
:1049C00040B244011951854940B240010844026196
:1049D0008348006850F001008149086070BC70474E
:1049E00080B580488049097801440520FEF786FC9F
:1049F0007D480078401C7C4908707B48007801287D
:104A000006D178480078A52802D0002076490870A1
:104A100075480078032805D10020734908700120EB
:104A20007249087001BD10B582B0002428E0A520AD
:104A30008DF80000F1208DF801006D48A4B230F827
:104A40002410080080B2000A8DF802008DF80310CF
:104A5000042269460520FEF76DFC644800780028B2
:104A6000FBD00020614908705E4840785D49897834
:104A700051EA00205E49A4B201EB84014880641C25
:104A8000A4B2082CD3DB13BD30B585B004004FF4BD
:104A900016510520FEF735FB5649472000F0CBF8AC
:104AA0000520FEF75AFC4FF47A70FEF708FB002051
:104AB0004E49087000251DE0A5208DF80C004E48D9
:104AC000ADB230F825008DF80D004B48ADB200EBCB
:104AD00085004188080080B2000A8DF80E008DF82C
:104AE0000F10042203A90520FEF724FC0220FEF784
:104AF000E6FA6D1CADB2092DDEDB3C4800780028DB
:104B0000FBD000203949087036484078FF28FBD197
:104B100034488078FF28F7D1FFF785FF72B601206F
:104B200002904FF496400190002000904023220014
:104B30003249002000F0BBF831494020FEF77CF9F3
:104B400000214020FDF7ABFF2548006840084000E9
:104B5000234908602048006850F001001E490860A1
:104B60000020FFF7EBFE1E48006850F001001C49D2
:104B700008605920FFF7EDFE22494720FEF75CF957
:104B800000214720FDF78BFF01215920FFF7ECFEA4
:104B90005920FFF7D3FE62B605B030BD80B5802046
:104BA000194908604FF49643184A14490020FFF74A
:104BB000EEFE01BD0120164908700748006850F05C
:104BC000010005490860704700E100E080E100E075
:104BD00018ED00E000E400E0248000400090004078
:104BE0000C800040C00CFF1F28A3FF1F440CFF1FB8
:104BF000D80BFF1F2F520000B40BFF1F91F00F4086
:104C00000201020002010A00A0B00440D057FF1FB9
:104C100029A3FF1F10B504004FF4007094FBF0F1BE
:104C200000FB1140002803D01E210B48FEF760F95D
:104C30000A48046010BD38B504000D00074800683C
:104C40000749884203D030210348FEF751F9044850
:104C500064B240F8245031BD6054000008ED00E01B
:104C60000000FF1F38B5820912F00702D2B25201CC
:104C7000103810F03F00C0B2C0008518C9B215EB63
:104C8000C100441E0CE0002200212800C0B2FDF744
:104C9000AFFE4FF481712800C0B2FEF7CDF86D1C55
:104CA00020002900C0B2C9B28842ECD231BD2DE942
:104CB000F04704000D0090461E009DF920904FFA29
:104CC00089F9B9F1000F01D101270EE04FFA89F9F6
:104CD000B9F1010F01D1022707E04FFA89F9B9F1C3
:104CE000020F01D1042700E010274FFA89F9B9F12A
:104CF000000F05D15D48854202D35D48A84221D20C
:104D00004FFA89F9B9F1010F09D15848854206D304
:104D10005848A84203D315F00300032812D14FFAD4
:104D200089F9B9F1020F09D15048854206D352489A
:104D3000A84203D315F00300002803D061214F4897
:104D4000FEF7D6F8DDF824A0BAF5004F03D36321AF
:104D50004A48FEF7CDF84A48006850F0020048493A
:104D600008604848006850F002004649086046481C
:104D700064B261014550444864B261010844C0F81E
:104D800010800020404964B2620111448880FFB263
:104D90003D4864B26101084487824FFA89F95FEAAD
:104DA000092010F4E0604FFA89F919F0070108436F
:104DB000354964B262011144C88050464004400C39
:104DC000314964B262011144C88250464004400C2B
:104DD0002D4964B262011144C8832C48006830F048
:104DE00080002A490860FFB2274864B26101084484
:104DF00087600020244964B262011144C8600A98A7
:104E0000C00702D4DAF1000000E000201E4964B2BD
:104E10006201114488614CF20A001B4964B26201CC
:104E2000114488833000C0B24009313050F0800016
:104E3000174964B2085517493000C0B2FDF7FCFFAE
:104E40003900C9B22800FFF70DFF1348006801219F
:104E5000A140884310490860104800680121A14022
:104E600008430E490860BDE8F087000010F00F40CD
:104E700013F10F4012F10F4010F10F40E853000002
:104E8000408004403C80044000900040008000408E
:104E900000100240000101000C800040248000400E
:104EA0000000000000000000002F000000000700CC
:104EB000070000147F147F1400242A7F2A12006246
:104EC00064081323003649552250000005030000F2
:104ED00000001C224100000041221C000014083E7A
:104EE00008140008083E0808000000A06000000840
:104EF0000808080800006060000000201008040294
:104F0000003E5149453E0000427F40000042615151
:104F10004946002141454B31001814127F100027EB
:104F200045454539003C4A494930000171090503AE
:104F300000364949493600064949291E00003636DF
:104F40000000000056360000000814224100001442
:104F5000141414140000412214080002015109061F
:104F600000324959513E007C1211127C007F4949A0
:104F70004936003E41414122007F4141221C007FD1
:104F800049494941007F09090901003E4149497ADF
:104F9000007F0808087F0000417F41000020404159
:104FA0003F01007F08142241007F40404040007FC5
:104FB000020C027F007F0408107F003E4141413E09
:104FC000007F09090906003E4151215E007F091951
:104FD00029460046494949310001017F0101003F4E
:104FE0004040403F001F2040201F003F4038403FCE
:104FF0000063140814630007087008070061514932
:10500000454300007F4141000002040810200000D9
:1050100041417F0000040201020400404040404042
:10502000000001020400002054545478007F4844DA
:10503000443800384444442000384444487F003811
:105040005454541800087E0901020018A4A4A47C3A
:10505000007F080404780000447D40000040808404
:105060007D00007F102844000000417F4000007C4C
:1050700004180478007C0804047800384444443858
:1050800000FC242424180018242418FC007C0804A4
:10509000040800485454542000043F444020003C7D
:1050A0004040207C001C2040201C003C4030403C04
:1050B000004428102844001CA0A0A07C0044645494
:1050C0004C4414141414141480B500F081F800F04A
:1050D00028F800F008F8012201210420FDF788FCDF
:1050E000FEF742FFFEE780B50B20FEF7D5FE2A490A
:1050F0000860294800684FF47A71484327490860DE
:105100002648006826490968C1F30361491CB0FBC1
:10511000F1F0244908605FF4E1310420FDF7F1FF6C
:1051200001BD80B52048214988420BD0002006E00F
:105130001E4951F820101C4A42F82010401CB0F5BE
:10514000826FF5D31848FFF765FD1949194A1A48C7
:10515000801A03E013780B70521C491C0300581E80
:10516000002BF7D115491648401A02E000220A70B8
:10517000491C0200501E002AF8D11249124A134855
:10518000801A03E013780B70521C491C0300581E50
:10519000002BF7D101BD0000C80CFF1FC40CFF1F7E
:1051A00044800440CC0CFF1F0000FF1F00000000E3
:1051B0001004FF1F201A000058220000940CFF1F4B
:1051C0002CA3FF1F480CFF1F60520000AC520000D0
:1051D00080B500F008F80C4800884FF6FE710840D2
:1051E0000949088001BDEFF3118072B64CF22051DD
:1051F000064A11804DF62811044A1180C0B20028D9
:1052000000D162B670470000002005400E20054026
:1052100080B500200E4801685FF0FF300C4A106036
:105220000720C140C80701D5FFF7B8FC01BD10B584
:105230000524084864B250F824000079800601D59E
:10524000FFF7CEFB034864B250F82400007910BD8C
:10525000A0B004409C0BFF1F80B5FFF7ABFC01BD65
:1052600070B4104C24680F4D2D6855F47F050D4E19
:105270003560090611F0706151EA0070110511F4F2
:1052800070010843190411F47021084306490860AD
:10529000002000E0401CC0B29842FBD301480460EB
:1052A00070BC704700F0014044800440453A5C66A1
:1052B0006972655F4B696E657469735F7465737459
:1052C000325F73656D695F66696E616C202D20B811
:1052D000B1B1BE5C436869705C5372635C4D4B3620
:1052E000305F6770696F2E6300000000453A5C66AE
:1052F0006972655F4B696E657469735F7465737419
:10530000325F73656D695F66696E616C202D20B8D0
:10531000B1B1BE5C436869705C5372635C4D4B36DF
:10532000305F5379735469636B2E6300453A5C6652
:105330006972655F4B696E657469735F74657374D8
:10534000325F73656D695F66696E616C202D20B890
:10535000B1B1BE5C436869705C5372635C4D4B369F
:10536000305F756172742E630000000019E050F820
:10537000041BCB0744BFA9F101035918121F0023D6
:10538000042A41F8043BF9D25FEA827C0B4604D53B
:105390004FF0000CA1F800C09B1CD10744BF0021B6
:1053A000197050F8042B002AE1D170470A2A2A2AE2
:1053B0002A64656661756C745F69737220656E74CA
:1053C00065726564206F6E20766563746F72202548
:1053D000642A2A2A2A2A0A0A257320496E746572C9
:1053E0007275707400000000453A5C666972655F12
:1053F0004B696E657469735F74657374325F73654E
:105400006D695F66696E616C202D20B8B1B1BE5CBC
:10541000436869705C5372635C4D4B36305F646DFA
:10542000612E6300453A5C666972655F4B696E6523
:105430007469735F74657374325F73656D695F66F9
:10544000696E616C202D20B8B1B1BE5C4368697093
:105450005C5372635C4D4B36305F66746D2E630037
:10546000453A5C666972655F4B696E657469735F26
:1054700074657374325F73656D695F66696E616CC4
:10548000202D20B8B1B1BE5C436869705C53726373
:105490005C6D6973632E630010B507497944183158
:1054A000064C7C44163404E00A68081D1144884701
:1054B0000146A142F8D110BD2C00000038000000C8
:1054C000417373657274696F6E206661696C65649F
:1054D00020696E202573206174206C696E6520251B
:1054E000640A000089FEFFFF98960000940CFF1FDD
:1054F0000000000000F00BF8002801D0FFF7CCFFFF
:105500000020C046C046FEF72FFD00F002F8012043
:10551000704700F001B800000746384600F002F876
:10552000FBE700002021090326311820ABBEF9E774
:1055300038B504460D46284600F006F8A84218BFC4
:105540000024204632BD00000149FDF7E4BC00BF45
:10555000040CFF1FC046C046C046C046FFF7CAFF46
:10556000000000000000000000000000000000003B
:10557000000000000000000000000000FFFFFFFF2F
:10558000FFFFFFFF0000000000000000000000001F
:10559000000000000000000000000000000000000B
:1055A0000000000000000000FFFFFFFFFFFF000001
:1055B00000000000000000000000000000000000EB
:1055C00000000000000000000000000000000000DB
:1055D00000000000000000000000000000000000CB
:0855E0000000000000000000C3
:04000005000055554D
:00000001FF
